{
  "contractName": "Deduplicate",
  "abi": [
    {
      "anonymous": false,
      "inputs": [
        {
          "indexed": true,
          "internalType": "uint256",
          "name": "_metadataId",
          "type": "uint256"
        }
      ],
      "name": "metadataCreated",
      "type": "event"
    },
    {
      "anonymous": false,
      "inputs": [
        {
          "indexed": true,
          "internalType": "uint256",
          "name": "_userId",
          "type": "uint256"
        }
      ],
      "name": "userCreated",
      "type": "event"
    },
    {
      "inputs": [],
      "name": "metadataCount",
      "outputs": [
        {
          "internalType": "uint256",
          "name": "",
          "type": "uint256"
        }
      ],
      "stateMutability": "view",
      "type": "function",
      "constant": true
    },
    {
      "inputs": [],
      "name": "userCount",
      "outputs": [
        {
          "internalType": "uint256",
          "name": "",
          "type": "uint256"
        }
      ],
      "stateMutability": "view",
      "type": "function",
      "constant": true
    },
    {
      "inputs": [
        {
          "internalType": "uint256",
          "name": "",
          "type": "uint256"
        }
      ],
      "name": "userList",
      "outputs": [
        {
          "internalType": "string",
          "name": "username",
          "type": "string"
        },
        {
          "internalType": "string",
          "name": "password",
          "type": "string"
        },
        {
          "internalType": "string",
          "name": "phone",
          "type": "string"
        },
        {
          "internalType": "string",
          "name": "email",
          "type": "string"
        },
        {
          "internalType": "string",
          "name": "home_address",
          "type": "string"
        }
      ],
      "stateMutability": "view",
      "type": "function",
      "constant": true
    },
    {
      "inputs": [
        {
          "internalType": "string",
          "name": "uname",
          "type": "string"
        },
        {
          "internalType": "string",
          "name": "pass",
          "type": "string"
        },
        {
          "internalType": "string",
          "name": "phone",
          "type": "string"
        },
        {
          "internalType": "string",
          "name": "em",
          "type": "string"
        },
        {
          "internalType": "string",
          "name": "add",
          "type": "string"
        }
      ],
      "name": "saveUser",
      "outputs": [],
      "stateMutability": "nonpayable",
      "type": "function"
    },
    {
      "inputs": [],
      "name": "getUserCount",
      "outputs": [
        {
          "internalType": "uint256",
          "name": "",
          "type": "uint256"
        }
      ],
      "stateMutability": "view",
      "type": "function",
      "constant": true
    },
    {
      "inputs": [
        {
          "internalType": "string",
          "name": "uname",
          "type": "string"
        },
        {
          "internalType": "string",
          "name": "fname",
          "type": "string"
        },
        {
          "internalType": "string",
          "name": "bno",
          "type": "string"
        },
        {
          "internalType": "string",
          "name": "bhash",
          "type": "string"
        },
        {
          "internalType": "string",
          "name": "ud",
          "type": "string"
        }
      ],
      "name": "saveMetadata",
      "outputs": [],
      "stateMutability": "nonpayable",
      "type": "function"
    },
    {
      "inputs": [],
      "name": "getMetadataCount",
      "outputs": [
        {
          "internalType": "uint256",
          "name": "",
          "type": "uint256"
        }
      ],
      "stateMutability": "view",
      "type": "function",
      "constant": true
    },
    {
      "inputs": [
        {
          "internalType": "uint256",
          "name": "i",
          "type": "uint256"
        }
      ],
      "name": "getUsername",
      "outputs": [
        {
          "internalType": "string",
          "name": "",
          "type": "string"
        }
      ],
      "stateMutability": "view",
      "type": "function",
      "constant": true
    },
    {
      "inputs": [
        {
          "internalType": "uint256",
          "name": "i",
          "type": "uint256"
        }
      ],
      "name": "getPassword",
      "outputs": [
        {
          "internalType": "string",
          "name": "",
          "type": "string"
        }
      ],
      "stateMutability": "view",
      "type": "function",
      "constant": true
    },
    {
      "inputs": [
        {
          "internalType": "uint256",
          "name": "i",
          "type": "uint256"
        }
      ],
      "name": "getPhone",
      "outputs": [
        {
          "internalType": "string",
          "name": "",
          "type": "string"
        }
      ],
      "stateMutability": "view",
      "type": "function",
      "constant": true
    },
    {
      "inputs": [
        {
          "internalType": "uint256",
          "name": "i",
          "type": "uint256"
        }
      ],
      "name": "getEmail",
      "outputs": [
        {
          "internalType": "string",
          "name": "",
          "type": "string"
        }
      ],
      "stateMutability": "view",
      "type": "function",
      "constant": true
    },
    {
      "inputs": [
        {
          "internalType": "uint256",
          "name": "i",
          "type": "uint256"
        }
      ],
      "name": "getAddress",
      "outputs": [
        {
          "internalType": "string",
          "name": "",
          "type": "string"
        }
      ],
      "stateMutability": "view",
      "type": "function",
      "constant": true
    },
    {
      "inputs": [
        {
          "internalType": "uint256",
          "name": "i",
          "type": "uint256"
        }
      ],
      "name": "getOwner",
      "outputs": [
        {
          "internalType": "string",
          "name": "",
          "type": "string"
        }
      ],
      "stateMutability": "view",
      "type": "function",
      "constant": true
    },
    {
      "inputs": [
        {
          "internalType": "uint256",
          "name": "i",
          "type": "uint256"
        }
      ],
      "name": "getFilename",
      "outputs": [
        {
          "internalType": "string",
          "name": "",
          "type": "string"
        }
      ],
      "stateMutability": "view",
      "type": "function",
      "constant": true
    },
    {
      "inputs": [
        {
          "internalType": "uint256",
          "name": "i",
          "type": "uint256"
        }
      ],
      "name": "getBlockhash",
      "outputs": [
        {
          "internalType": "string",
          "name": "",
          "type": "string"
        }
      ],
      "stateMutability": "view",
      "type": "function",
      "constant": true
    },
    {
      "inputs": [
        {
          "internalType": "uint256",
          "name": "i",
          "type": "uint256"
        }
      ],
      "name": "getBlockNo",
      "outputs": [
        {
          "internalType": "string",
          "name": "",
          "type": "string"
        }
      ],
      "stateMutability": "view",
      "type": "function",
      "constant": true
    },
    {
      "inputs": [
        {
          "internalType": "uint256",
          "name": "i",
          "type": "uint256"
        }
      ],
      "name": "getUploadDate",
      "outputs": [
        {
          "internalType": "string",
          "name": "",
          "type": "string"
        }
      ],
      "stateMutability": "view",
      "type": "function",
      "constant": true
    }
  ],
  "bytecode": "0x608060405260008055600060025534801561001957600080fd5b50611b4f806100296000396000f3fe608060405234801561001057600080fd5b5060043610610128576000357c010000000000000000000000000000000000000000000000000000000090048063b5cb15f7116100bf578063e901185e1161008e578063e901185e1461021a578063e9413d381461022d578063e9a6f34614610240578063f18d18cc14610253578063f38c6bb61461026657600080fd5b8063b5cb15f7146101e4578063b93f3f34146101ec578063b93f9b0a146101f4578063c41a360a1461020757600080fd5b806356f96a65116100fb57806356f96a65146101855780636b477fed1461019a578063972fe8bc146101ad5780639f4216e8146101c057600080fd5b806307973ccf1461012d57806318c4952c146101495780632e7d44b514610169578063342afb7e1461017c575b600080fd5b61013660005481565b6040519081526020015b60405180910390f35b61015c610157366004611808565b610279565b604051610140919061186e565b61015c610177366004611808565b610581565b61013660025481565b610198610193366004611944565b6105b3565b005b61015c6101a8366004611808565b6106bb565b61015c6101bb366004611808565b6109c3565b6101d36101ce366004611808565b610ccb565b604051610140959493929190611a16565b600054610136565b600254610136565b61015c610202366004611808565b610fa1565b61015c610215366004611808565b610fd3565b61015c610228366004611808565b6112d9565b61015c61023b366004611808565b6115e1565b61019861024e366004611944565b611613565b61015c610261366004611808565b61170b565b61015c610274366004611808565b61173d565b60606000600360008481526020019081526020016000206040518060a00160405290816000820180546102ab90611a83565b80601f01602080910402602001604051908101604052809291908181526020018280546102d790611a83565b80156103245780601f106102f957610100808354040283529160200191610324565b820191906000526020600020905b81548152906001019060200180831161030757829003601f168201915b5050505050815260200160018201805461033d90611a83565b80601f016020809104026020016040519081016040528092919081815260200182805461036990611a83565b80156103b65780601f1061038b576101008083540402835291602001916103b6565b820191906000526020600020905b81548152906001019060200180831161039957829003601f168201915b505050505081526020016002820180546103cf90611a83565b80601f01602080910402602001604051908101604052809291908181526020018280546103fb90611a83565b80156104485780601f1061041d57610100808354040283529160200191610448565b820191906000526020600020905b81548152906001019060200180831161042b57829003601f168201915b5050505050815260200160038201805461046190611a83565b80601f016020809104026020016040519081016040528092919081815260200182805461048d90611a83565b80156104da5780601f106104af576101008083540402835291602001916104da565b820191906000526020600020905b8154815290600101906020018083116104bd57829003601f168201915b505050505081526020016004820180546104f390611a83565b80601f016020809104026020016040519081016040528092919081815260200182805461051f90611a83565b801561056c5780601f106105415761010080835404028352916020019161056c565b820191906000526020600020905b81548152906001019060200180831161054f57829003601f168201915b50505091909252505050604001519392505050565b60606000600160008481526020019081526020016000206040518060a00160405290816000820180546102ab90611a83565b6040805160a08101825286815260208082018790528183018690526060820185905260808201849052600254600090815260038252929092208151805192939192610601928492019061176f565b50602082810151805161061a926001850192019061176f565b506040820151805161063691600284019160209091019061176f565b506060820151805161065291600384019160209091019061176f565b506080820151805161066e91600484019160209091019061176f565b50506002546040519091507f9f49995648da1e4d7e87d09c8c91c9fd9a6eeef446b8eacd3a34ed378da1d11d90600090a2600280549060006106af83611ad7565b91905055505050505050565b60606000600360008481526020019081526020016000206040518060a00160405290816000820180546106ed90611a83565b80601f016020809104026020016040519081016040528092919081815260200182805461071990611a83565b80156107665780601f1061073b57610100808354040283529160200191610766565b820191906000526020600020905b81548152906001019060200180831161074957829003601f168201915b5050505050815260200160018201805461077f90611a83565b80601f01602080910402602001604051908101604052809291908181526020018280546107ab90611a83565b80156107f85780601f106107cd576101008083540402835291602001916107f8565b820191906000526020600020905b8154815290600101906020018083116107db57829003601f168201915b5050505050815260200160028201805461081190611a83565b80601f016020809104026020016040519081016040528092919081815260200182805461083d90611a83565b801561088a5780601f1061085f5761010080835404028352916020019161088a565b820191906000526020600020905b81548152906001019060200180831161086d57829003601f168201915b505050505081526020016003820180546108a390611a83565b80601f01602080910402602001604051908101604052809291908181526020018280546108cf90611a83565b801561091c5780601f106108f15761010080835404028352916020019161091c565b820191906000526020600020905b8154815290600101906020018083116108ff57829003601f168201915b5050505050815260200160048201805461093590611a83565b80601f016020809104026020016040519081016040528092919081815260200182805461096190611a83565b80156109ae5780601f10610983576101008083540402835291602001916109ae565b820191906000526020600020905b81548152906001019060200180831161099157829003601f168201915b50505091909252505050608001519392505050565b60606000600160008481526020019081526020016000206040518060a00160405290816000820180546109f590611a83565b80601f0160208091040260200160405190810160405280929190818152602001828054610a2190611a83565b8015610a6e5780601f10610a4357610100808354040283529160200191610a6e565b820191906000526020600020905b815481529060010190602001808311610a5157829003601f168201915b50505050508152602001600182018054610a8790611a83565b80601f0160208091040260200160405190810160405280929190818152602001828054610ab390611a83565b8015610b005780601f10610ad557610100808354040283529160200191610b00565b820191906000526020600020905b815481529060010190602001808311610ae357829003601f168201915b50505050508152602001600282018054610b1990611a83565b80601f0160208091040260200160405190810160405280929190818152602001828054610b4590611a83565b8015610b925780601f10610b6757610100808354040283529160200191610b92565b820191906000526020600020905b815481529060010190602001808311610b7557829003601f168201915b50505050508152602001600382018054610bab90611a83565b80601f0160208091040260200160405190810160405280929190818152602001828054610bd790611a83565b8015610c245780601f10610bf957610100808354040283529160200191610c24565b820191906000526020600020905b815481529060010190602001808311610c0757829003601f168201915b50505050508152602001600482018054610c3d90611a83565b80601f0160208091040260200160405190810160405280929190818152602001828054610c6990611a83565b8015610cb65780601f10610c8b57610100808354040283529160200191610cb6565b820191906000526020600020905b815481529060010190602001808311610c9957829003601f168201915b50505091909252505050606001519392505050565b600160205260009081526040902080548190610ce690611a83565b80601f0160208091040260200160405190810160405280929190818152602001828054610d1290611a83565b8015610d5f5780601f10610d3457610100808354040283529160200191610d5f565b820191906000526020600020905b815481529060010190602001808311610d4257829003601f168201915b505050505090806001018054610d7490611a83565b80601f0160208091040260200160405190810160405280929190818152602001828054610da090611a83565b8015610ded5780601f10610dc257610100808354040283529160200191610ded565b820191906000526020600020905b815481529060010190602001808311610dd057829003601f168201915b505050505090806002018054610e0290611a83565b80601f0160208091040260200160405190810160405280929190818152602001828054610e2e90611a83565b8015610e7b5780601f10610e5057610100808354040283529160200191610e7b565b820191906000526020600020905b815481529060010190602001808311610e5e57829003601f168201915b505050505090806003018054610e9090611a83565b80601f0160208091040260200160405190810160405280929190818152602001828054610ebc90611a83565b8015610f095780601f10610ede57610100808354040283529160200191610f09565b820191906000526020600020905b815481529060010190602001808311610eec57829003601f168201915b505050505090806004018054610f1e90611a83565b80601f0160208091040260200160405190810160405280929190818152602001828054610f4a90611a83565b8015610f975780601f10610f6c57610100808354040283529160200191610f97565b820191906000526020600020905b815481529060010190602001808311610f7a57829003601f168201915b5050505050905085565b60606000600160008481526020019081526020016000206040518060a00160405290816000820180546106ed90611a83565b60606000600360008481526020019081526020016000206040518060a001604052908160008201805461100590611a83565b80601f016020809104026020016040519081016040528092919081815260200182805461103190611a83565b801561107e5780601f106110535761010080835404028352916020019161107e565b820191906000526020600020905b81548152906001019060200180831161106157829003601f168201915b5050505050815260200160018201805461109790611a83565b80601f01602080910402602001604051908101604052809291908181526020018280546110c390611a83565b80156111105780601f106110e557610100808354040283529160200191611110565b820191906000526020600020905b8154815290600101906020018083116110f357829003601f168201915b5050505050815260200160028201805461112990611a83565b80601f016020809104026020016040519081016040528092919081815260200182805461115590611a83565b80156111a25780601f10611177576101008083540402835291602001916111a2565b820191906000526020600020905b81548152906001019060200180831161118557829003601f168201915b505050505081526020016003820180546111bb90611a83565b80601f01602080910402602001604051908101604052809291908181526020018280546111e790611a83565b80156112345780601f1061120957610100808354040283529160200191611234565b820191906000526020600020905b81548152906001019060200180831161121757829003601f168201915b5050505050815260200160048201805461124d90611a83565b80601f016020809104026020016040519081016040528092919081815260200182805461127990611a83565b80156112c65780601f1061129b576101008083540402835291602001916112c6565b820191906000526020600020905b8154815290600101906020018083116112a957829003601f168201915b5050509190925250509051949350505050565b60606000600360008481526020019081526020016000206040518060a001604052908160008201805461130b90611a83565b80601f016020809104026020016040519081016040528092919081815260200182805461133790611a83565b80156113845780601f1061135957610100808354040283529160200191611384565b820191906000526020600020905b81548152906001019060200180831161136757829003601f168201915b5050505050815260200160018201805461139d90611a83565b80601f01602080910402602001604051908101604052809291908181526020018280546113c990611a83565b80156114165780601f106113eb57610100808354040283529160200191611416565b820191906000526020600020905b8154815290600101906020018083116113f957829003601f168201915b5050505050815260200160028201805461142f90611a83565b80601f016020809104026020016040519081016040528092919081815260200182805461145b90611a83565b80156114a85780601f1061147d576101008083540402835291602001916114a8565b820191906000526020600020905b81548152906001019060200180831161148b57829003601f168201915b505050505081526020016003820180546114c190611a83565b80601f01602080910402602001604051908101604052809291908181526020018280546114ed90611a83565b801561153a5780601f1061150f5761010080835404028352916020019161153a565b820191906000526020600020905b81548152906001019060200180831161151d57829003601f168201915b5050505050815260200160048201805461155390611a83565b80601f016020809104026020016040519081016040528092919081815260200182805461157f90611a83565b80156115cc5780601f106115a1576101008083540402835291602001916115cc565b820191906000526020600020905b8154815290600101906020018083116115af57829003601f168201915b50505091909252505050602001519392505050565b60606000600360008481526020019081526020016000206040518060a00160405290816000820180546109f590611a83565b6040805160a081018252868152602080820187905281830186905260608201859052608082018490526000805481526001825292909220815180519293919261165f928492019061176f565b506020828101518051611678926001850192019061176f565b506040820151805161169491600284019160209091019061176f565b50606082015180516116b091600384019160209091019061176f565b50608082015180516116cc91600484019160209091019061176f565b5050600080546040519092507f1ed675bb725b3a8b0434b9ee956fe05e4c0e79f9dc67c3f1a717a5bb1fd88fd39190a26000805490806106af83611ad7565b60606000600160008481526020019081526020016000206040518060a001604052908160008201805461100590611a83565b60606000600160008481526020019081526020016000206040518060a001604052908160008201805461130b90611a83565b82805461177b90611a83565b90600052602060002090601f01602090048101928261179d57600085556117e3565b82601f106117b657805160ff19168380011785556117e3565b828001600101855582156117e3579182015b828111156117e35782518255916020019190600101906117c8565b506117ef9291506117f3565b5090565b5b808211156117ef57600081556001016117f4565b60006020828403121561181a57600080fd5b5035919050565b6000815180845260005b818110156118475760208185018101518683018201520161182b565b81811115611859576000602083870101525b50601f01601f19169290920160200192915050565b6020815260006118816020830184611821565b9392505050565b7f4e487b7100000000000000000000000000000000000000000000000000000000600052604160045260246000fd5b600082601f8301126118c857600080fd5b813567ffffffffffffffff808211156118e3576118e3611888565b604051601f8301601f19908116603f0116810190828211818310171561190b5761190b611888565b8160405283815286602085880101111561192457600080fd5b836020870160208301376000602085830101528094505050505092915050565b600080600080600060a0868803121561195c57600080fd5b853567ffffffffffffffff8082111561197457600080fd5b61198089838a016118b7565b9650602088013591508082111561199657600080fd5b6119a289838a016118b7565b955060408801359150808211156119b857600080fd5b6119c489838a016118b7565b945060608801359150808211156119da57600080fd5b6119e689838a016118b7565b935060808801359150808211156119fc57600080fd5b50611a09888289016118b7565b9150509295509295909350565b60a081526000611a2960a0830188611821565b8281036020840152611a3b8188611821565b90508281036040840152611a4f8187611821565b90508281036060840152611a638186611821565b90508281036080840152611a778185611821565b98975050505050505050565b600281046001821680611a9757607f821691505b60208210811415611ad1577f4e487b7100000000000000000000000000000000000000000000000000000000600052602260045260246000fd5b50919050565b6000600019821415611b12577f4e487b7100000000000000000000000000000000000000000000000000000000600052601160045260246000fd5b506001019056fea26469706673582212201dd636ddc5d8772053eb24ca4c66370e9cad417a11fdda3b890afc920d2eaf7864736f6c634300080b0033",
  "immutableReferences": {},
  "source": "pragma solidity >= 0.8.11 <= 0.8.11;\r\npragma experimental ABIEncoderV2;\r\n//Deduplicate solidity code\r\ncontract Deduplicate {\r\n\r\n    uint public userCount = 0; \r\n    mapping(uint => user) public userList; \r\n     struct user\r\n     {\r\n       string username;\r\n       string password;\r\n       string phone;\r\n       string email;\r\n       string home_address;\r\n     }\r\n \r\n   // events \r\n   event userCreated(uint indexed _userId);\r\n   \r\n   //function  to save user details to Blockchain\r\n   function saveUser(string memory uname, string memory pass, string memory phone, string memory em, string memory add) public {\r\n      userList[userCount] = user(uname, pass, phone, em, add);\r\n      emit userCreated(userCount);\r\n      userCount++;\r\n    }\r\n\r\n     //get user count\r\n    function getUserCount()  public view returns (uint) {\r\n          return  userCount;\r\n    }\r\n\r\n    uint public metadataCount = 0; \r\n    mapping(uint => metadata) metadataList; \r\n     struct metadata\r\n     {\r\n       string username;\r\n       string filename;\r\n       string block_no;\r\n       string block_hash;\r\n       string upload_date;              \r\n     }\r\n \r\n   // events \r\n   event metadataCreated(uint indexed _metadataId);\r\n   \r\n   //function  to save metadata details to Blockchain\r\n   function saveMetadata(string memory uname, string memory fname, string memory bno, string memory bhash, string memory ud) public {\r\n      metadataList[metadataCount] = metadata(uname, fname, bno, bhash, ud);\r\n      emit metadataCreated(metadataCount);\r\n      metadataCount++;\r\n    }\r\n\r\n    //get metadata count\r\n    function getMetadataCount()  public view returns (uint) {\r\n          return metadataCount;\r\n    }\r\n\r\n    function getUsername(uint i) public view returns (string memory) {\r\n        user memory doc = userList[i];\r\n\treturn doc.username;\r\n    }\r\n\r\n    function getPassword(uint i) public view returns (string memory) {\r\n        user memory doc = userList[i];\r\n\treturn doc.password;\r\n    }\r\n\r\n    function getPhone(uint i) public view returns (string memory) {\r\n        user memory doc = userList[i];\r\n\treturn doc.phone;\r\n    }    \r\n\r\n    function getEmail(uint i) public view returns (string memory) {\r\n        user memory doc = userList[i];\r\n\treturn doc.email;\r\n    }\r\n\r\n    function getAddress(uint i) public view returns (string memory) {\r\n        user memory doc = userList[i];\r\n\treturn doc.home_address;\r\n    }\r\n\r\n    function getOwner(uint i) public view returns (string memory) {\r\n        metadata memory doc = metadataList[i];\r\n\treturn doc.username;\r\n    }\r\n\r\n    function getFilename(uint i) public view returns (string memory) {\r\n        metadata memory doc = metadataList[i];\r\n\treturn doc.filename;\r\n    }\r\n\r\n    function getBlockhash(uint i) public view returns (string memory) {\r\n        metadata memory doc = metadataList[i];\r\n\treturn doc.block_hash;\r\n    }   \r\n    \r\n    function getBlockNo(uint i) public view returns (string memory) {\r\n        metadata memory doc = metadataList[i];\r\n\treturn doc.block_no;\r\n    } \r\n\r\n     function getUploadDate(uint i) public view returns (string memory) {\r\n        metadata memory doc = metadataList[i];\r\n\treturn doc.upload_date;\r\n    } \r\n     \r\n}",
  "sourcePath": "C:\\Users\\Admin\\Desktop\\Blockchain\\hello-eth\\node_modules\\.bin\\contracts\\Deduplicate.sol",
  "compiler": {
    "name": "solc",
    "version": "0.8.11+commit.d7f03943.Emscripten.clang"
  },
  "schemaVersion": "3.4.4",
  "updatedAt": "2025-02-03T05:49:57.383Z",
  "networkType": "ethereum",
  "devdoc": {
    "kind": "dev",
    "methods": {},
    "version": 1
  },
  "userdoc": {
    "kind": "user",
    "methods": {},
    "version": 1
  }
}